:020000042000DA
:10200000181C0020D164002000000000E1640020C2
:1020100000000000000000000000000000000000C0
:10202000000000000000000000000000E16400204B
:102030000000000000000000E1640020E1640020D6
:1020400000000000E1640020E1640020E164002061
:10205000E1640020E1640020E1640020E1640020EC
:102060000000000000000000000000000000000070
:102070000000000000000000000000000000000060
:102080000000000000000000000000000000000050
:102090000000000000000000000000000000000040
:1020A0000000000000000000000000000000000030
:1020B0000000000000000000000000000000000020
:1020C000014B18687047C046A8160020034B10B596
:1020D0001B688820002B00D0984710BDE01300201B
:1020E000104B37B51B68002B01D0984719E0FFF75C
:1020F000EDFF0D4D04002B68002B12D10B4B6946F0
:1021000003202B6001F090FF002809D0200001F08F
:102110002FFC220001002860032001F0ADFF040025
:1021200020003EBDE4130020A8160020C0100020AF
:1021300010B5FFF7D5FF10BD10B5FFF7C1FF03784D
:10214000002B06D0012B0CD102F08EFE02F0A2FE75
:1021500003E003F07DF803F091F801F0CBF901F012
:102160004BF810BD10B5FFF7ABFF10BD0123064AB9
:1021700011680B431360BFF34F8F044A044BDA60BE
:10218000BFF34F8FC046FDE7182800400400FA0552
:1021900000ED00E0002330B5084A01784078D518FA
:1021A000AD7F9C5C854201D1A14204D001331E2B3E
:1021B000F5D1052000E0012030BDC046F413002019
:1021C0000020054A1368990051184860834201D0E5
:1021D000013B13607047C046E8130020F7B50600C6
:1021E0000F000024154B1A19927F1D00BA4217D117
:1021F0001A5DB24214D17C2E03D10E34A4001C19F6
:1022000016E0402E0FD100236A4669460520538010
:1022100001F00AFF002808D0094B1B78002B04D1DD
:1022200001341E2CDED1042006E00E34A4002C194B
:102230000448636804309847FEBDC046F41300208C
:10224000C4140020A814002013B5012104007C2030
:10225000FFF7C4FF042201A9052001F00DFF0300D0
:102260000120002B07D02368019A0430934202D149
:10227000014B0438187016BDC414002010B5074A6D
:1022800003231089002806D0054B92881968023173
:1022900001F058FF0123180010BDC046B8140020FB
:1022A000B414002070B5FFF70BFF0E4B05001B891F
:1022B0000220012B15D0032B12D10930002D10D094
:1022C00001217130FFF78AFF074B1C68FFF7FEFE04
:1022D000023402002100280004F098FD012000E0F3
:1022E000032070BDB8140020B414002010B5064CB3
:1022F000064AA188206800F005FBE288012382429B
:1023000000D00533180010BDB8140020FFFF0000F6
:1023100010B5007804F0CCFC012010BDFA2370B594
:1023200005000088DB00984201D9082010E0094E22
:102330003468002CF9D1023001F01AFB306000281B
:10234000F3D02A8821000280023004F09DFD012094
:1023500070BDC046B414002010B5034B9869998B2A
:1023600004F03EFC022010BD8816002037B5012184
:1023700005007C20FFF732FF00236A4669460520EE
:10238000538001F051FE04000C20002C0AD12B6870
:102390000738002B06D00422290001F0D3FE0120CB
:1023A000014B1C703EBDC046C4140020F7B501921D
:1023B000FF229446194A0E000700002311009800DE
:1023C0001018C06BDCB20D00002804D0D018807F3C
:1023D000FF2800D06446C818807FB04208D1C85C8E
:1023E000B84205D10E339B00ED18019B6B6013E0E2
:1023F00001331E2B01D0A446E1E7FF2C03D179461F
:10240000032000F0ABFC23000E339B00019AEB1875
:102410002F552C195A60A677F7BDC046F41300203B
:10242000002370B54020FF261D00444AD1188E7746
:1024300099005118CD639854013300241E2BF5D117
:102440003F4A07217C20FFF7B1FF3E4A03217C2051
:10245000FFF7ACFF3C4A02217C20FFF7A7FF3B4A75
:1024600014217C20FFF7A2FF00F05EFF182221005C
:10247000374804F009FD374D0C222100280004F0F4
:1024800003FD0C222100344804F0FEFCA81C0A21A4
:1024900004F058FB314A324B11687C200B40282154
:1024A0000B4313602F4A253913688B4313600122B5
:1024B0002D4B12311A702D4B2D4A5C609C60FFF73A
:1024C00075FF2C4A0A217C20FFF770FF2A4A16214B
:1024D0007C20FFF76BFF294A20217C20FFF766FF55
:1024E000274A09214020FFF761FF264A0B2140209F
:1024F000FFF75CFF244A0C214020FFF757FF234AD7
:1025000012214020FFF752FF214A13214020FFF7FC
:102510004DFF204A11214020FFF748FF1E4A192194
:102520004020FFF743FF03F08BFDA04204D01B4A7D
:1025300027214020FFF73AFF70BDC046F41300206A
:10254000D9280020492200206D2300201D230020CF
:1025500088160020A8140020B814002090280040FD
:1025600081FFFCFFDC1C0040C4140020E8130020A5
:10257000AD2800209521002085280020112300206F
:10258000A5260020752800204128002021270020B2
:10259000D1260020C927002095260020A52F002045
:1025A00010B504F01DFB10BD10B504F033FB10BDD9
:1025B000012110B5064AC3B25370000A4B40434094
:1025C00011709070D3700331100004F009FB10BD3E
:1025D00088160020F8B504F0DBFA051E012D3AD06C
:1025E0001E4F02280BD03B6802249B00FB185B683F
:1025F000002B0AD098470400FFF7E2FD05E0FFF743
:10260000DFFD7B68002BFAD1EDE704F047FB0028E3
:1026100005D0134BD9789878FFF7E0FD0400002629
:102620003500022C17D0012C07D00E2C0FD10D48ED
:102630000121066004F0D4FA0CE07B683500002B21
:1026400009D108482100066004F0CAFA03E020001E
:10265000FFF7AEFF35002800F8BDC046E8130020A4
:10266000A81400208816002010B504F0FDFA10BD53
:10267000074B19688A009A185268002A03D000296B
:1026800001D101221A601A6892009B1858607047A5
:10269000E813002010B50248FFF7EAFF0E2010BD36
:1026A0006D21002010B504008188006804F0DCFA78
:1026B0000548FFF7DDFF2268044B02201A60A2885C
:1026C0009A80E288DA8010BDED220020B814002044
:1026D00037B5050001217C20FFF780FD0D4B2A88CE
:1026E00009201A810C4B1C68002C12D022886B88A0
:1026F00002389A420DD30948FFF7BAFFAB886A88BF
:102700001B0413430234684600940193FFF7CAFF89
:1027100002203EBDB8140020B41400207D22002009
:1027200073B5154D04002A680923002A22D0468873
:102730001288023BB2421DD90388012B06D0032B1D
:1027400017D1FFF7C3FC0B23864213D10B48FFF7C9
:102750008FFF22880A4B68461A812B6862880233F1
:102760000093A3881B0413430193FFF79BFF0223ED
:1027700000E00323180076BDB4140020A522002039
:10278000B8140020F8B50D4C0D4A21800D0006004C
:1027900000F0B8F82778020AC3B260803800617888
:1027A00048405840504020710521200004F032FA82
:1027B0000448A661A583FFF75BFFF8BD88160020DB
:1027C000FFFF00005923002073B5050001217C2084
:1027D000FFF704FD28881849431E9BB2174C0022BE
:1027E0008B4201D8052804D1206801218270023073
:1027F0001CE06B4669465A8001F016FC21680923EB
:10280000002916D06B460E885A880723964210D3AB
:10281000002801D10A230CE00231288801F02CFCA9
:102820000028F7D06B46206859880230FFF7AAFFCE
:102830000223180076BDC046FDFF0000B41400203E
:1028400037B50A4A8188006800F05CF86B460224BC
:10285000D88007489D1D29002200053004F0D6FAD3
:1028600028002100FFF78EFF20003EBDFFFF000083
:102870008816002010B581880068FFF783FF0220CA
:1028800010BD000013B56B469C1DFA23DB002380AE
:10289000054B2100581D9A8B04F0B8FA2000022144
:1028A000FFF770FF022016BD88160020084B70B598
:1028B0001C680920002C0AD0064D2100AA8B681D37
:1028C00004F0A4FA2000A98BFFF75CFF022070BD82
:1028D000B41400208816002070B50225064C2A008A
:1028E00005340100200004F091FA29002000FFF7D0
:1028F00049FF280070BDC0468816002010B5FFF7BC
:1029000069FEFCE7F0B50F250C4C01390C4B89B280
:10291000994211D0077813013E09120B72402A40E8
:102920005200125B013053401A011B0B7B402B40BD
:102930005B001B5B5A40E8E790B2F0BD486F002097
:10294000FFFF000070B5D2430F250B4C41188842A1
:1029500010D006780130330053402B409B001B59A8
:102960001209534032095A402A40920012591B0959
:102970005A40ECE7D04370BD686F00200020034B45
:102980001A78824201D1013018707047C5140020B6
:102990000022014B1A707047C51400200D4B10B572
:1029A0001B78002B01D1036011E001230A4A136058
:1029B0000C680A4A14604968094A116009490A68A2
:1029C0001A42FCD1084B1A68084B1B68026043602E
:1029D00010BDC046C514002010D0002000D000203B
:1029E00004D0002014D0002008D000200CD00020FB
:1029F0000D4B1B78002B01D1036012E00B4A0C4BEE
:102A00001A600A680B4B1A604A680B4B0B491A6034
:102A100001230A681A42FCD1094B1A68094B1B684A
:102A2000026043607047C046C514002001000300E7
:102A300010D0002000D0002004D0002014D00020AE
:102A400008D000200CD000200749084B0848196026
:102A50000368084A89011A40E023DB0219400B0091
:102A6000134303607047C046001E0020080000406A
:102A7000D81C0040FFFFF8FF0122014B1A6070478D
:102A8000040000400122034B52421A600022024B14
:102A90001A6070472C00004004000040F7B5019216
:102AA0001A430A430E0007001E49900706D19A08F0
:102AB000013A150129401C1F1B4D07E0D20707D41E
:102AC0005A08013A15012940184D9C1E0D4305E096
:102AD0005C1E25012940022522000D43144B9A4219
:102AE00003D97946012000F039F90121B940114A92
:102AF0003B0136199E50D318019A9D6014190E4A55
:102B00005C6013680D4C0B431360206823681B0C3A
:102B10001A0483B28B4313432360094B1960094B9A
:102B20001960F7BDF03F0000020000AA0200005546
:102B3000FF030000001E002000DC0020D81C004025
:102B40002800004014000040F8B51D4D04011F008E
:102B50002B19615106005A60022F03D10A439307D3
:102B60000ED009E0012F05D10A433A4208D0794638
:102B7000380003E0002F03D07946012000F0EEF882
:102B8000C023C02239079B05194092043B0613401D
:102B90000C4A0B4313432C19A3600123B3400A4A88
:102BA0000A4913600A681A430A60094908680A68F2
:102BB0000343120C12049BB213430B60F8BDC046D2
:102BC000001E0020010000CC2800004000DC002096
:102BD000D81C0040044B00011818072380681840D7
:102BE000431E9841C0B27047001E0020044B1A6873
:102BF0000123834018001040431E9841C0B2704723
:102C000008DC002001238340014A13607047C0465E
:102C10002C00004010B50E4C30222100022001F0A3
:102C20002BFA21000123302801D100230C638A688C
:102C30000F2A07D80A687F2A04D84A681F2A01D8B1
:102C4000002B03D07946032000F088F810BDC04661
:102C5000AC160020134B10B5186B00281CD00F22A7
:102C6000114B84681968914322400A431A6019681D
:102C70000E4A114002681401FE22D20022400A438B
:102C80001A6019680A4A11404268F820D20200020C
:102C900002400A431A6003E07946032000F05EF820
:102CA00010BDC046AC1600204C2800400FF8FFFFB6
:102CB000FF07FFFF10B502F0F5FFFCE7EFF3058318
:102CC0000020834219D0103BDBB25AB2824208DAAC
:102CD0000F221A40083A9208084992005218506888
:102CE00004E09208C0320649920050580322134073
:102CF0009340D840800910400130704718ED00E043
:102D000000E100E010B550220021024804F0BCF8B8
:102D100010BDC046C8140020042804D80E30024B51
:102D20008000181841607047C814002010B50400D6
:102D3000FFF7C4FF0C235843024A83586360845052
:102D4000101810BDC814002002680100101E03D026
:102D50001368526818000A6070470000F7B5060053
:102D600001910C25FFF7AAFF45430B4F04007D1985
:102D70002800FFF7E9FF002805D0019B2E71AB600A
:102D8000310004F0D3F80E34A4003F197B68002B07
:102D900001D030009847F7BDC814002010B503F0EB
:102DA00037FB012003F05AFB03F044FB10BD13B5C1
:102DB0006B46981D05230121037003F075FB6B46DC
:102DC000DC1D2000012103F053FB03F033FB2078CE
:102DD00016BD37B56B46D81D062301210370662446
:102DE00003F062FB032503F025FB013CA4B2FFF7CF
:102DF000DEFF002C04D028400228F6D1013800E084
:102E000020003EBD37B56B46DD1DC7232B7003F098
:102E100011FBFFF7DEFF041E0AD02800012103F09A
:102E200043FB012503F006FBFFF7C1FF2842FBD15E
:102E300020003EBD0223F0B585B0140002AA03AE07
:102E4000D3700B0C33700B0A737080230D00B170BC
:102E50005B00C9B201901A00002901D05B1A9AB236
:102E6000131CA24200D9231C9FB203F0E3FA002CEA
:102E70002BD0FFF7AEFF002828D002ABD81C0121D1
:102E800003F012FB0321300003F00EFB3900019820
:102E900003F00AFB03F0CEFAFFF789FF0123184283
:102EA000FAD18022ED192B0C33702B0A7370019B21
:102EB000E41BDB19A4B20193B570231C52009442A9
:102EC00001D9034B1B889FB2D1E7012005B0F0BDAB
:102ED000A86F0020F7B50B0C01AC23700B0A6370D0
:102EE0006B46032716000500A170D81C012107704E
:102EF00003F0DAFA3900200003F0D6FA3100280096
:102F000003F0B6FA03F096FAF7BD00007FB502AC05
:102F100005000E00FFF742FF082200212000FFF706
:102F2000D9FF22881D4B9A422ED11D4A062120002E
:102F3000FFF7E8FCE388834226D16288B24223D8B7
:102F4000043A92B208212800FFF7C4FF61880422E6
:102F5000043101A8FFF7BEFF6188114A043989B224
:102F60002800FFF7CFFC0421020001A8FFF7CAFCEC
:102F7000A388834208D1608804220438281801A954
:102F800003F044FF012400E0002403F053FA002082
:102F900003F064FA200004B070BDC0465AA50000DA
:102FA000FFFF000037B50478012C44D0002C05D079
:102FB000022C4FD103F04CF801204FE0FFF7EEFE5A
:102FC000FFF720FF002847D06A462549254B264DAC
:102FD00089B2138051802800244AFFF793FC6B4686
:102FE000224A988006216846FFF78CFC6B46082130
:102FF000D8805A882800FFF71DFF00282CD008220F
:1030000021006846FFF716FF002825D0082221007E
:103010006846FFF75FFF6B461A88154B9A421BD133
:10302000124A06216846FFF76DFC6B46DB880124D7
:10303000834211D104E0FFF7B1FEFFF7E3FE040085
:1030400003F0F8F9002003F009FA0120002C05D163
:103050000E3003E00F2001E00024F1E73EBDC04642
:10306000008000005AA5FFFF00200020FFFF0000A5
:103070005AA5000070B505000E0000242B789C4274
:103080001BD27343AA681219D3565A1C12D06A680D
:103090009B009B58002B0DD0984700280AD02B7816
:1030A00073431C19EB68A400E358002B05D0984724
:1030B000060002E00134A4B2E0E72B69B200D35865
:1030C0009847300070BD0000034B10B51B6803200B
:1030D000002B00D0984710BD44150020034B10B5BD
:1030E0001B68002B00D0984710BDC046301500204B
:1030F000034B10B51B68002B00D0984710BDC0468D
:103100002C150020034B10B51B68002B00D09847EE
:1031100010BDC0461C150020034B10B51B68002BCA
:1031200000D0984710BDC04634150020064B10B59E
:103130001C68002C01D0A04704E001F025FC00F041
:10314000C3F9200010BDC04640150020054B10B546
:103150001B68002B01D0984702E000F0ADF9022077
:1031600010BDC04638150020054B10B51B68002B5C
:1031700001D0984702E001F0FFFB012010BDC046DE
:1031800018150020054B10B51B68002B01D098477F
:1031900003E0034A1268507D537510BD28150020C6
:1031A00048150020054B10B51B68002B01D098472F
:1031B00003E0034A1268907D937510BD241500202A
:1031C00048150020074B10B51B68002B01D098470D
:1031D00007E001F011FC044B1B681B88834280410F
:1031E000404210BD201500203C150020014B1B68FB
:1031F000187D70474815002010B5182000F0B8FB66
:103200000B4C2060FEF75CFF0A4B023018600A4945
:1032100023680022996009491A75596008499A750E
:10322000D96008491961022119700139597510BD19
:10323000481500203C150020581100206011002086
:10324000701100204811002010B5044B1C68217D2E
:103250002000FFF70FFF207510BDC0464815002065
:1032600030B5007885B0033812284AD803F098FDAD
:1032700010131B49494949494949494949490A27BC
:103280002D343C00204B214C1B680193636000E00F
:103290001F4C082130E01F4B0D201C68002C31D042
:1032A0001834102128E000F08DFF1B4C03A90534D1
:1032B00008800222200003F0A9FD02211CE0164D27
:1032C00002F0AEFE6C1D687104E0144A124B1278D5
:1032D0005C1D5A7101210FE0114B0F4C1B68053426
:1032E0000393042203A903E004220B4C0D49053487
:1032F000200003F08BFD04212000FFF743FA022099
:1033000000E0042005B030BD38700020D813002044
:1033100080160020DC16002088160020541600209D
:10332000341D00405016002010B5034A04217C20B3
:10333000FFF73CF810BDC0466132002010B502AC6A
:103340002488002805D043800023028084800B80DD
:103350008B7010BD10B543880C880288E318934227
:1033600003D301230A808B7000E00B8010BD0B8813
:103370008288934201D99B1A00E000230B8070479A
:10338000002303808370704780787047014B1B686F
:10339000187E704770150020034B10B51B68012084
:1033A000002B00D0984710BD6C150020064B10B5BF
:1033B0001B68002B01D0984704E001220220034B38
:1033C0001B685A7610BDC0465815002070150020A5
:1033D000034B10B51B68181E00D0984710BDC0469F
:1033E00054150020034B10B51B68002B00D09847E4
:1033F00010BDC04678150020034B10B51B68002B8C
:1034000000D0984710BDC04668150020034B10B58A
:103410001B68002B00D0984710BDC04674150020D3
:10342000012370B5094D2C682371094B1968094BAC
:1034300089B22180186803F079FC2A68608053887B
:103440005B085B0053800023137170BD6015002082
:103450004CA000405C150020054B10B51B68002BEC
:1034600001D0984703E0034A1268507D537510BDA0
:103470006415002070150020054B10B51B68002B4B
:1034800001D0984703E0034A1268907D937510BD00
:103490004C15002070150020054B10B51B68002B43
:1034A00001D0984703E0034A1268D07DD37510BD60
:1034B00050150020701500200122024B1B685A7520
:1034C0007047C046701500200122024B1B68DA7558
:1034D0007047C046701500200022024B1B68587EC2
:1034E0005A76704770150020014B1B68187D704795
:1034F0007015002070B51C2000F03AFA324D28609B
:10350000062000F035FA314C2060FEF7D9FD2A681C
:103510002F49304B91603049503051602F4918602D
:10352000D1602F49002311610321612011701375AF
:1035300053759375D375137653762A4922681371A0
:103540000A688243203802430A602749B4300A6877
:10355000FF30120C120402430A6080222349D20574
:1035600008680240224802430A600121214A116092
:103570002149224A08680240214802430A60214A40
:1035800021491360136013600868204A02400A60F2
:10359000C4211F4A89001360136013601360136015
:1035A00013601C4B1C4A0833DA671C4A1C4B5058EA
:1035B00003408020C001034353508021C02389026F
:1035C0005B00D15070BDC046701500206015002012
:1035D000901100205C1500209C110020B8110020E3
:1035E000AC110020502C0040582C0040642C0040AE
:1035F00001008231542C004040A0004080FFC0FFF9
:103600001200050048A0004044A000400000608077
:1036100054A00040000000002134002000E100E040
:10362000FF00FFFF7047000010B5044B1C68217DB0
:103630002000FFF71FFD207510BDC046701500204B
:103640009C2210B552000021014803F01DFC10BD62
:10365000E0160020F8B5204B1B68002B01D09847DE
:1036600038E01E4BC4081C193634FF342578072770
:1036700004003C40E540012425422BD1CD085D19D2
:103680003735FF352E780F40FE40264022D11C00F2
:10369000FC34246B651C182D00D935001E00FC3647
:1036A000776BBD4209D19A277F00DF5D002F11D0D3
:1036B0006F1C192F00D1002777630C260902744371
:1036C00008430749084318511C19211DFC3311CA2E
:1036D00011C11D63F8BDC04680150020E016002012
:1036E0000000FFFFF8B50E4B01001D68002D01D052
:1036F000A84714E0002812D00A4F28003C00FC34F0
:10370000636B226B93420AD00C225E1C53436663A8
:10371000FB1885CB85C10120192E00D16563F8BD4A
:103720007C150020E01600209A23024A5B00D0544A
:103730007047C046E0160020094AC308D318072284
:103740003633FF331040002904D0063A82401978FE
:103750000A4303E0012181401A788A431A707047B6
:10376000E0160020094AC308D31807223733FF3375
:103770001040002904D0063A824019780A4303E039
:10378000012181401A788A431A707047E0160020A0
:10379000090208431204104370470068C0B2704722
:1037A0000068000AC0B270470068000C7047000053
:1037B00010B5FEF70FFF02F0A1FC80239B00C1189B
:1037C000014802F035FD10BDDC11002010B5554B4D
:1037D000B6B01B680393002B04DB8023039A9B0580
:1037E000134055D0002308AC04A804940593FFF7B8
:1037F0009DFA0290200003F08DFB029BC0B218716D
:10380000002837D1FEF76CFC00280BD00221802065
:1038100002F036FC042002F089FC02F0EBFF0028E5
:1038200005D008E079460320FFF798FAEEE702F0AA
:10383000F7FB002810D0FEF77FFC00223A49100069
:1038400002F098FC00223949012002F093FC00228A
:103850003749022002F08EFC02F050FC411CFF317F
:10386000344802F0E5FC0322334B1A6062B602F0E2
:10387000D3FC04E00222304B1A60FFF73FF8029BB2
:1038800002981B79002B3AD00023029A137141E071
:103890002A4A0399114240D0294A1268082A3DD188
:1038A0001FAC06A806940793FFF740FA019020008A
:1038B00003F030FBC0B20400019B1871631E9C41F1
:1038C000E4B200280AD10398032102F085FBFEF739
:1038D00049FC0221802002F0D3FB0BE00121019B77
:1038E00008001A1DFFF7B6FE0222134B00241A60CF
:1038F000FFF704F8019B1879002803D11800FFF79F
:1039000023FA07E0002C03D07946FFF727FA01E0FD
:10391000019B1C7102F0B0FC00E0FEE7002036B015
:1039200010BDC04600280040A54C002029360020CC
:1039300049320020DC11002050160020017F0000D9
:1039400004280040054A064B0649D3180B60064B75
:103950001A600022054B1A607047C0460010000034
:10396000C0000020881500208C1500208415002040
:1039700003220749C31C93430A6810B500209342F1
:1039800005D8044C2068C01AD31A20600B6010BD03
:103990008C1500208815002030B5094D2A68002AB2
:1039A0000BD10321074CC31C8B4321688B4205D8E4
:1039B0002B60CB1A2360020000E00022100030BD13
:1039C000841500208C150020014B18687047C046F4
:1039D00084150020014B18687047C0468C150020E4
:1039E0005A6007220240801AC0089860082010B56B
:1039F0001960801A814201D3D86000E0D960044880
:103A0000002182181A61082203F03EFA10BDC04658
:103A100090150020C268416810B58918416001689E
:103A200003008A1A8168026001318160072A00D987
:103A300008220448DA6018610822002103F024FA01
:103A400010BDC0469015002010B500F0F7FB10BD6A
:103A500070B5164B150082188AB004000E009A4209
:103A600001D8984203D979460120FFF777F905ABD1
:103A7000320029002000FFF7B3FF059B0193002BC4
:103A800012D007980A4900F0FDFB069B0193099BA1
:103A900001980293089B02991A00039303F0B6F968
:103AA00005A8FFF7B7FFE8E70AB070BD00200000E7
:103AB0009015002070B5324B150082188AB00400B2
:103AC0000E009A4201D8984203D979460120FFF7A7
:103AD00045F905AB320029002000FFF781FF00F017
:103AE000E9FB059B0193002B12D0099B0193069BD8
:103AF00001980293089B02991A00039303F086F938
:103B00000798204900F0E4FB05A8FFF783FFE8E7EA
:103B100000F0DAFB05AB320029002000FFF760FF60
:103B2000059B0193002B28D0099B0193069B0198CC
:103B30000293089B02991A00039303F067F9114C52
:103B40000798210000F0FCFB002812D0079800F035
:103B5000CDFC002803D179460530FFF7FFF821009E
:103B6000079800F0EDFB002803D079460520FFF709
:103B7000F5F805A8FFF74EFFD2E70AB070BDC046C2
:103B800000200000901500200421044A13688B4394
:103B90000B43136013688B4313607047041C004091
:103BA000064A10B5136880B21B0C1B041843106042
:103BB000034B044A1A60FFF7E7FF10BD181C0040D2
:103BC0000C1C0040000001081021044A13688B43BC
:103BD0000B43136013688B4313607047041C004051
:103BE0000121054A13688B4313600423034A1168BB
:103BF0000B4313607047C046001C0040081C004087
:103C000001230D4910B50A689A431A430A600A68ED
:103C10009A430A60332209490868184202D0013ADF
:103C2000002AF9D1054B1B68DB0703D57946042030
:103C3000FFF794F810BDC046081C0040441C00402B
:103C4000134A144B10B51A6001238021124A09054A
:103C50001360124A12481160124A1360652201680B
:103C6000C909194202D1013A002AF8D10C4B1B684C
:103C70001B0603D479460420FFF770F89620400015
:103C800002F048FAFFF7BCFF0222074B1A7010BD82
:103C900003050100001C0040041C00400C1C0040F7
:103CA000441C0040081C0040981500200E4B10B525
:103CB0001878032813D803F073F802051612FFF7DB
:103CC000BFFF10E0012209490868024304200A608E
:103CD00007490A6882430A6002221A7003E07946A3
:103CE0000420FFF73BF810BD98150020001C004091
:103CF000081C004010B5FFF7A3FFFFF771FF01227A
:103D0000024B1A701A72024A5A6010BD98150020B0
:103D100080841E002023044A11680B431360002294
:103D2000024B1A707047C046081C004098150020CE
:103D3000F8B50E0015000700FFF7B8FF0323802237
:103D40000121174C1205237073055B0D1343154AAF
:103D5000217213602A683140D343002900D0130038
:103D6000114A13606A68D343002900D0130020264B
:103D70000E4A0F4D1360FFF707FF2B683800B3435F
:103D800033432B6002F0C6F92B68B3432B60082342
:103D9000C046013B9BB2002BFAD102332370F8BD21
:103DA000981500200C1C0040101C0040141C004002
:103DB000041C004070B50400FFF778FF01230B4D91
:103DC0000B4E2B72A088FFF7EBFE0A4B3360FFF718
:103DD000FBFE6088FFF7E4FE074B3360FFF7F4FE5D
:103DE0002088FFF7DDFE02232B7070BD98150020A0
:103DF0000C1C0040000004080000020810B5FFF78A
:103E000055FF01230748084A0372084B08491A6006
:103E100002220B68934313430B600B6893430B60C0
:103E2000027010BD98150020000001080C1C004015
:103E3000081C004001220B4B10B51A721A781C00A6
:103E4000012A02D1002805D10AE0002802D1FFF79B
:103E5000D5FF01E0FFF7AEFFFFF7C2FE012323709D
:103E600010BDC0469815002010B5FFF71FFF0323B3
:103E7000054C064A2370023B2372054B1A60FFF77C
:103E8000BFFE0223237010BD98150020000001081A
:103E90000C1C004070B50600FFF708FF104A012314
:103EA0001268104C100023729843002E01D0134367
:103EB00018000D4B1D68FFF773FE0C4A0C4B1A607F
:103EC000FFF782FEA8B2FFF76BFE002E05D0482355
:103ED000C046013B9BB2002BFAD10223237070BD78
:103EE0003C1C004098150020381C004000000208CF
:103EF0000C1C004070B50D0014000600FFF7D6FE44
:103F000003228021154B09051A70023A1A726A05BC
:103F1000520D0A4312490A6000210B2E01D9033EBB
:103F2000F10872B603200F4A1060002902D0C04683
:103F30000139FAE70131116062B6002C0BD00A4A50
:103F40002940126800D0D2432260084A1268002932
:103F500000D0D243626002221A7070BD9815002012
:103F60000C1C0040041C0040201C0040241C00408D
:103F7000F8B507000E000D4C2368002B06D09A8878
:103F8000BA4201D1DE800FE01B68F6E70820FFF798
:103F9000EFFC051E03D179460320FEF7DFFE236800
:103FA000AF802B60EE802560F8BDC046A4150020D0
:103FB00010B508220021024802F066FF10BDC0467D
:103FC000A4150020F0B5002485B0FFF73DFD134F88
:103FD0000A3FBC421ED801AD0A2229002000FFF78B
:103FE00037FD6B882E88AA881E43EB881A4315007C
:103FF000002E0FD0092A03D879460520FEF7AEFE21
:10400000074B9E4203D021003000FFF7B1FF2C196F
:10401000A4B2DEE7034B9C8005B0F0BD0020000099
:10402000FFFF0000A41500207FB50D00104B1B689A
:10403000002B06D09A888242F9D1DE880D4B9E4231
:1040400001D1002012E001AC0A2230002100FFF76C
:10405000FFFC012022886388EE8013432B80A28816
:10406000E38813430A3B6B802389AB8004B070BDA7
:10407000A4150020FFFF0000F0B50F0087B0194B1A
:1040800001921B68002B2AD09A888242F9D1DD88E0
:10409000154B9D4201D1002321E003AE0A223100DD
:1040A0002800FFF7D5FCF388B4881C430A3C019B29
:1040B000A4B29C4203D979460520FEF74FFE2800A2
:1040C00022000A303900FFF7C3FC074A21003800FC
:1040D000FEF718FC32890023824200D12300180029
:1040E00007B0F0BDA4150020FFFF00007FB505005C
:1040F0000024124B9C421BD201AE0A223100200048
:10410000FFF7A6FC32887388134311D0AB4209D164
:10411000EB436A469BB21380538069460422200019
:10412000FFF7C8FCB288F3881343E418A4B2E0E7B1
:1041300028000349FFF71CFF7FBDC0460020000098
:10414000FFFF0000F0B516001B4B87B000919A8866
:1041500001931A4B92190A3B07009A4203D97946F8
:104160000320FEF7FBFD3800FFF7C0FF33000A33E2
:1041700003AD9BB2124A31000098AB80EB802F80D8
:104180006F80FEF7BFFB019B28819C8838002100CF
:10419000FFF7EEFE20000A3429000A22A4B2FFF73E
:1041A00089FC200032000099FFF784FC019B341940
:1041B0009C8007B0F0BDC046A41500200020000080
:1041C000FFFF0000044B9888044B181A80B20A289D
:1041D00000D800207047C046A41500200020000031
:1041E00013B5104C6A4621680B20FFF783FE0020B0
:1041F0006268009913688B432361002B04D0591E19
:1042000001300B40C0B2F8E7526801998A436261FD
:10421000002A04D0511E01330A40DBB2F8E71B1814
:10422000D8B216BDAC15002010B5242200210248DA
:1042300002F02AFE10BDC046AC15002010B5FFF7F5
:1042400059FD10BD10B5041E03D179460120FEF7BB
:1042500085FD12222100024802F0D8FD10BDC046A3
:10426000EC11002010B5041E03D179460120FEF7A1
:1042700075FD12220249200002F0C8FD10BDC046A3
:10428000EC11002070B5050000200C00FFF7D2FDF6
:104290000120074BEA00D3181A68284000D0D24307
:1042A00022605B68002800D0DB43636070BDC046BD
:1042B0000080000010B50348FFF77CFD0120FFF7E8
:1042C000E9FD10BDEC11002010B5FFF797FD10BD02
:1042D00070B50025174C2060616017490026A94081
:1042E000626813680B40A360002B04D0581E01368F
:1042F0000340F6B2F8E752681140E160002904D0AB
:104300004A1E11405A1CD3B2F8E79B19DEB2002EA8
:1043100006D02200094B083298892168FFF708FD72
:10432000236A002B02D05A6896195E600135102D61
:10433000D3D170BDAC15002001000100EC110020AC
:10434000F8B500263500324C20606160314B1A7C94
:10435000AA4258D95B7CAB420ED826002D4B0836BA
:10436000981DFFF727FD0120FFF794FD082200218B
:10437000300002F089FD16E02648FFF71BFD0823F8
:10438000C046013B9BB2002BFAD1FFF729FF226AFE
:10439000002A04D06B00D3181A8912181A81002839
:1043A000DBD100262FE000270123BB40B268134079
:1043B000336006D02200174B0832D8892168FFF7F6
:1043C000B7FC0137212FEFD1134B04369E42EAD1BF
:1043D0000020FFF75FFD0823C046013B9BB2002B86
:1043E000FAD1FFF7FDFE226A0600002A06D06B0014
:1043F000D318598F091859876B1C13600028D0D027
:104400000135EDB2A2E7FFF7F9FC3000F8BDC04678
:10441000AC150020EC110020BC15002070B5012364
:104420009EB00290802003932D4B8000DA8819887B
:10443000024301431980DA80002307AC05A80594E4
:104440000693FEF773FC0190200002F063FD019BD0
:10445000C0B21871002829D1029E224D029C10364C
:10446000183520002900FFF70DFFFFF723FF20007C
:1044700029000134FFF72CFFFFF7C0FCA642F0D162
:10448000184D029C183529002000FFF7FBFE29007B
:104490002000FFF755FF002803D10134B442F2D1C8
:1044A00006E079460520FEF759FCF6E70023039362
:1044B000019B1B79002B03D10198FEF745FC02E01C
:1044C0000023019A1371064B074A1988114019807D
:1044D000D9880A40DA80FFF791FC03981EB070BDBE
:1044E000EC110020AC150020FFFDFFFFF0B587B0F8
:1044F000430501D500204CE00F23274D98432B683E
:1045000086050593F30F0193019A05AB9446634426
:104510001F7804000393002FECD1FFF77FFF0028E2
:10452000E8D006230822E405E40E600018401B4E84
:10453000A4081043240120433400183439000290A9
:10454000200002F0A1FC019BF6186B461B7A337623
:10455000FFF7B0FEC0202100C000FFF7B9FE210028
:104560000F48FFF7B5FEFFF749FCC0202100C0004F
:10457000FFF7E6FE21000A48FFF7E2FEFFF774FCB2
:104580002B680593039B1878029B181A43425841E5
:10459000C0B207B0F0BDC046281C0040AC150020DA
:1045A00002060000044B10B51862002803D06C22EC
:1045B000002102F069FC10BDAC150020034B10B5C2
:1045C0001B68002B00D0984710BDC046D0150020B6
:1045D000074A82B01268074B019201995A6800207D
:1045E0008A4203D11868431E9841C0B202B0704796
:1045F00038700020C000002010B5FFF7E9FF002848
:1046000003D179460130FEF7A9FB024B1B6898479E
:1046100010BDC046C000002010B5FFF7D5F9002836
:1046200003D079460320FEF799FBFFF7D3F90C4935
:1046300082B20120FFF720FD041E10D0072803D806
:1046400079460520FEF78AFB2000FFF7A5F9844292
:1046500003D079460320FEF781FBFFF7CDFF10BDA5
:10466000C00000200022024B1B68587E5A7670471B
:10467000D41500200022024B1B68987E9A76704762
:10468000D4150020044B1A681368508C1B88834291
:10469000804140427047C046D4150020044B1A6840
:1046A0001368508C5B888342804140427047C0460B
:1046B000D41500200022024B1B68D87EDA767047A2
:1046C000D41500200022024B1B68987F9A77704710
:1046D000D41500200022024B1B68587F5A77704780
:1046E000D41500200022024B1B68187F1A777047F0
:1046F000D4150020044B1A681368508C1B89834220
:10470000804140427047C046D4150020044B1B68CE
:104710001A685B8C50898342804140427047C04692
:10472000D4150020044B1B681A685B8C9089834267
:10473000804140427047C046D4150020014B1B68A1
:10474000D87F7047D41500207047000001200A4B25
:104750001B681A689188998452890849DA840A6822
:104760002A3382430A601B78054A5B019B1820228A
:1047700019680A431A607047D4150020102C0040B5
:1047800020A0004001210C4A13688B4313600B4AA0
:1047900013688B4313600A4B0A491A6813002A33C3
:1047A0001B7801325B015B182021186801431960F6
:1047B00000230420D377704700800040102C004075
:1047C000D415002020A000400E4B202019680E4A6E
:1047D0000B002A331B785B019B181A6882431A600E
:1047E0000A4B1F381A68824302431A60084A13684A
:1047F0008343034313600B680530DA888A849B89FE
:10480000CB847047D415002020A00040102C00401D
:104810000080004001210A4A002013688B43136086
:10482000084A13688B431360074B084A1B682A33F6
:104830001B785B019B18202219680A431A60704795
:1048400000800040102C0040D415002020A0004023
:1048500010B5FFF7DFFF10BD01210A4A07201368DA
:104860008B431360084A13688B431360074B084A55
:104870001B682A331B785B019B18202219680A43A6
:104880001A60704700800040102C0040D4150020B2
:1048900020A0004020210B4B0B4A1B6806202A3326
:1048A0001B785B019B181A688A431A60074B1F39F3
:1048B0001A688A430A431A60054A13688B430B43FC
:1048C00013607047D415002020A00040102C004039
:1048D0000080004001210A4A052013688B431360C1
:1048E000084A13688B431360074B084A1B682A3336
:1048F0001B785B019B18202219680A431A607047D5
:1049000000800040102C0040D415002020A0004062
:1049100010B5FFF7DFFF10BD10B5FFF7DBFF10BDCF
:10492000704770470A4B0B4A19680B002A331B78F3
:104930005B019A181268920605D5074A9A18126800
:104940005205520D4A84054A9B1802221A6070478C
:10495000D415002030A000402CA0004028A000402A
:1049600010B5FFF7DFFF10BD10B5FFF7DBFF10BD7F
:1049700010B5FFF7D7FF10BD0122024B1B685A7616
:104980007047C046D41500200122024B1B689A765E
:104990007047C046D41500200122024B1B68DA760E
:1049A0007047C046D41500200122024B1B681A77BD
:1049B0007047C046D41500200122024B1B685A776D
:1049C0007047C046D41500200122024B1B689A771D
:1049D0007047C046D41500200022034B1B680133EA
:1049E000D87FDA777047C046D4150020014B1B688A
:1049F000187E7047D4150020014B1B68588C7047F7
:104A0000D4150020014B016018607047D4150020B8
:104A1000F8B56F4B1B68002B01D09847D7E06D4A63
:104A20006D4812680F25511C137653769376D37612
:104A3000137753779377D377CB7711682A320C6942
:104A4000046088696549664C08600A206549086009
:104A500065490D606549086065490C60FA2465493F
:104A600064000C606449FA3C0C60FA246349E40079
:104A70000C60142462490C606249634C0B60802115
:104A80002668C9053140614E314321606049614E5D
:104A90000B6061490B6061490860614861490468C5
:104AA0002140CB24A40021430160012140245E4821
:104AB00001603068A043204330605C4E5C4837683A
:104AC000384080277F00384330605A4E3068884332
:104AD00008433060584E59483768384003273843F8
:104AE0003060574E3068B84308433060554E3C370D
:104AF0003068B843383F38433060534E3068000C5C
:104B000000043060514E3068000C0004306080209A
:104B10004F4E00023768384330604E4E4E4837687B
:104B20003840A027FF0038433060FE204B4E3768E6
:104B300038404B4F384330604A4E4B483768384016
:104B400030604A4E3068A84330601078484D4201CA
:104B500056193768474D3D40474F3D433560474DF7
:104B600055192B60464D521961251360454A13684B
:104B7000AB432343C8241360434AE4001368FC2575
:104B80001B0C1B04234313600B008340AD031B0469
:104B90002B40180080233D4C1B042268120E120685
:104BA000134303433A4AC02013402360FF24394B88
:104BB000394A1960394B80001A64394A1358A343A3
:104BC0003F3C23431350C0235B00D1501160F8BD1C
:104BD000D8150020D4150020088000400C8000402B
:104BE000DC05000010800040148000401880004068
:104BF0001C8000402080004024800040288000402D
:104C00002C8000403480004038800040000040800C
:104C10003C800040A01C0040408000404480004098
:104C20000080004000F0F0F0048000407428004054
:104C300081E0FCFF008A0040508A0040FCFCFFFF3E
:104C4000548A0040588A0040608A0040648A0040CC
:104C5000681C004084280040FFF8FFFF00A00040CF
:104C60000140000008A000400000FFC00CA0004070
:104C700020A0004080FFC0FF30000A0028A00040B4
:104C800034A00040102C0040182C0040242C004080
:104C9000FFFFFF40142C00404947002000000000A7
:104CA00000E100E00B4B10B51C680B4A23002A33CF
:104CB0001B785B019A181268920605D5074A9B1863
:104CC0001B685B055B0D6384217E201DFEF7D2F916
:104CD000207610BDD415002030A000402CA000404C
:104CE00001210C4B19600C4B1A6813682A321869A1
:104CF0000A4B186020201378094A5B019B181A6838
:104D000082431A60074A1E3813688B430B431360B3
:104D10007047C04630800040DC1500200C80004009
:104D200020A00040008000400122034B03201B68AC
:104D30000133DA777047C046DC15002001212020BE
:104D4000094B1A68531CD9772A321378074A5B013A
:104D50009B181A6882431A60054A1D3813688B43F2
:104D60000B4313607047C046DC15002020A00040B4
:104D7000008000400B4B03201B681A6891889984BF
:104D800020215289DA842A331B78074A5B019B1859
:104D90001A688A431A600123044A11680B4313609E
:104DA0007047C046DC15002020A000400080004075
:104DB00070B5134D01212C68124A23005A33197023
:104DC000303B1B785B019A18126852090A4211D0D5
:104DD0000D4A20009B18196823004905490D5833D6
:104DE00061843030198000F0DBF82B6820851A8D43
:104DF000064B1A6000222B685A331A7070BDC046E9
:104E0000DC15002030A000402CA000400C800040A9
:104E1000094B10B51C6823002000E26A58331B8838
:104E2000918E3030591A09B200F0A8F80122034BD4
:104E3000000B20851A6010BDDC150020308000407A
:104E4000074B10B51C682300200058330021595E21
:104E5000303000F093F80122024B20851A6010BD1B
:104E6000DC1500203080004010B56020FEF780FD8A
:104E7000074C60220021206002F006F8FDF720F9BF
:104E8000010020680831C162FFF7BCFD10BDC046BB
:104E9000DC1500202D4B10B51C68002C01D0A0475C
:104EA00052E0FFF7B5FD2A4B2A4A1B680221DA605F
:104EB000294A9A60294A1A61294A5A6105221A71B7
:104EC0001A002A321170DA6A118C1986516A5963F4
:104ED000118D1987518D5987918D9987D18DD987DA
:104EE000108E991CC887508E191DC88754310C80AC
:104EF000908E991DC887D08E0231C887906BD16B78
:104F00009864D964116C526C19655A650122154B6D
:104F1000FF201A60144A154B11680B40C021890507
:104F20000B43C4211360124B124A0433DA67124A4E
:104F3000890053588343BF3803435350802391392A
:104F40005B02FF395350136010BDC046E0150020CE
:104F5000DC15002030120020001200205812002022
:104F6000F81200203080004064A000400000608003
:104F700000000000B14D002000E100E0A02310B5CA
:104F8000028804005A430389C182534342608382EA
:104F900000214089D31701F00DFFA061E16110BD30
:104FA000030014201A5E70B5891A174A914200DD79
:104FB0001100DA8998898EB2101880B241430C0032
:104FC000CD17186A596A0019694116255C5F62435A
:104FD0001400D517001BA941002904DC00229142CE
:104FE00003DB020001E00122524218625962996912
:104FF000588A5218DE82120C824203D81B8A9A42C7
:1050000000D3100070BDC046FF7F0000174B10B5E5
:105010001B68DA6A1C00117F1A00303211700021FF
:1050200018684834026912039A6321701C1DE187D5
:105030009C1CE1875A6401220D492A330A600069E9
:105040000C49086020201B780B495B015B1819682C
:105050008143196009491E380B68934313430B6061
:1050600007490B68934313430B6010BDE415002000
:10507000308000400C80004020A00040102C0040F8
:10508000008000400122064B1B68591CCA77D96A70
:10509000487F190048333031087003201A70704778
:1050A000E41500200122144B1B68591CCA77D96AE9
:1050B000487F1900303108700A760021181DC18719
:1050C000981CC187202019680969090359642A338B
:1050D0001B780A495B015B1819688143196008490C
:1050E0001D380B68934313430B6006490B689343C9
:1050F0001A430A607047C046E415002020A0004013
:10510000102C0040008000400F4B03201B681A68E1
:105110009188998451891269D984202112039A6354
:105120002A331B78094A5B019B181A688A431A6064
:10513000074B1F391A688A430A431A60054A1368E5
:105140008B430B4313607047E415002020A0004000
:10515000102C00400080004070B5174D174A2C6895
:1051600023002A331B785B019A181268920621D516
:10517000134A9B181968A38C4905490D6184591A73
:10518000104B4902994200DA19000F4B994200DD99
:105190001900200009B2303000F0C2F82B6802225A
:1051A0001900000B4C3120850A7008490A601A8DDD
:1051B000074B1A6070BDC046E415002030A00040C7
:1051C0002CA000400080FFFFFF7F000030800040E7
:1051D0000C80004070B5174D174A2C6823002A3305
:1051E0001B785B019A181268920621D5134A9B1806
:1051F0001968A38C4905490D6184591A104B49025D
:10520000994200DA19000F4B994200DD1900200085
:1052100009B2303000F084F82B6801221900000B2D
:105220004C3120850A7008490A601A8D074B1A60B4
:1052300070BDC046E415002030A000402CA0004006
:105240000080FFFFFF7F0000308000400C800040A6
:1052500010B55020FEF78CFB074C50220021206037
:1052600001F012FEFCF72CFF010020680831C1623A
:10527000FFF7C8FB10BDC046E41500201F4B10B55A
:105280001C68002C01D0A04737E0FFF7C1FB1C4B86
:105290001C4A1B68DA601C4A19009A601B4A3031AC
:1052A0001A611B4A5A6105221A711A002A321470B7
:1052B000DA6A107F0870907F4870D07F8870196814
:1052C000128C9A860A6912039A638A691203DA6356
:1052D0001A1DD4879A1CD487A02252025A641A003D
:1052E0004832147002224C331A700A4B013A1A6089
:1052F000094A0A4B11680B40136010BDE8150020E5
:10530000E4150020301200200012002018130020A5
:10531000B81300203080004024A0004000006080CE
:10532000204B70B51B680400002B01D0984738E073
:10533000428A807813B2CB1A0341207E9A1813B2A6
:105340001A00002806D10422A05E0A1C814200DD5A
:10535000021C12B211006382637819410B00102104
:10536000605E181A104B8018984200DA18000F4B34
:1053700022826569984200DD1800EB172A00C117E8
:1053800001F018FD23780906000A08431841451961
:10539000A068854204DDE368281E984200DD1800FD
:1053A000606170BDEC1500200080FFFFFF7F0000F2
:1053B000044AC0051368C00D5B0A5B021843106005
:1053C0007047C046048C00400549064B0A6800043B
:1053D0001340F02212031040184308607047C04683
:1053E00028280040FFFFF0FF0549064B0A6800042B
:1053F0001340F02212031040184308607047C04663
:105400002C280040FFFFF0FF0549064B0A68000406
:105410001340F02212031040184308607047C04642
:105420003C280040FFFFF0FF0549064B0A680004D6
:105430001340F02212031040184308607047C04622
:1054400040280040FFFFF0FF0549064B0A68C001F5
:105450001340F022D2001040184308607047C04645
:10546000008E00407FF8FFFF78220449C0000B68DF
:1054700010409343184308607047C046008E0040B8
:10548000704700003F22034910400B6893431843C4
:1054900008607047188800403F22034910400B689D
:1054A0009343184308607047388800403F220349FF
:1054B00010400B68934318430860704758880040B9
:1054C0003F22034910400B6893431843086070471C
:1054D000188A00403F22034910400B689343184349
:1054E00008607047388A00403F22034910400B682B
:1054F0009343184308607047588A0040F0B58BB05A
:1055000003900E001700EFF31083049372B600228D
:1055100020206A4B3A607A601968814319606849B3
:105520000A601C68063222431A601A6882430243EA
:105530001A60644B1A6801220A600893039B079162
:105540000C2B2AD8180001F02BFC2F07330A0D1062
:105550001316191C1F22250010255B4C2AE010256C
:105560005A4C27E010255A4C24E04025594C21E0A4
:105570004025594C1EE04025584C1BE04025584C16
:1055800018E04025574C15E04025574C12E01025F7
:10559000564C0FE01025564C0CE001235B423B605B
:1055A000049B83F3108887E08025524CAD0001E016
:1055B0001025514C0123F268934006930023009379
:1055C0000593039B053BDBB20993099B052B11D87F
:1055D0006B461A88009B3C2B25D9484B1B68FC3333
:1055E0003D2A03D11A6F5B6F01921FE09A6FDB6F48
:1055F00001921BE0039B0B3B012B14D8009B082B53
:1056000009D1DE223D4B52001B689A580192E022DC
:1056100052009B5802E073680193B3680293009AAA
:10562000374BD05C04E073680193B3680098029331
:10563000A0473368002B02D0C046013BFAE7202187
:105640001A008C4606998B420ED0022007990860FA
:1056500060462C4909680142FAD00899013309686B
:105660004905490D5218EDE7F368DA40009B92B204
:10567000002B0ED0059B0199D31A8B4202DB0299B5
:105680008B4206DD3B68002B01D100997960013324
:105690003B60009B013300936B461B889D4201D900
:1056A000059292E7049B83F310883B68002B03D09C
:1056B00079460620FDF752FB0BB0F0BD20A000405C
:1056C00028A000402CA00040C9530020095400200D
:1056D000295400208554002099540020AD54002006
:1056E000C1540020D5540020E95400206954002002
:1056F00049540020B1530020E9530020F015002048
:105700002870002030A00040054B10B519680C200F
:105710000A00AD31CD32FF32FF31FFF7EFFE10BD91
:10572000F0150020054B10B519680B200A00AD31AB
:10573000C532FF32FF31FFF7E1FE10BDF01500204A
:10574000054B10B519680A200A005D31A532FF32F9
:10575000FF31FFF7D3FE10BDF0150020054B10B54B
:10576000196809200A005D319D32FF32FF31FFF7D1
:10577000C5FE10BDF0150020054B10B519680820B6
:105780000A005D319532FF32FF31FFF7B7FE10BDE1
:10579000F0150020054B10B5196807200A005D318F
:1057A0008D32FF32FF31FFF7A9FE10BDF01500204A
:1057B000054B10B5196806200A005D318532FF32AD
:1057C000FF31FFF79BFE10BDF0150020054B10B513
:1057D000196805200A005D317D32FF32FF31FFF785
:1057E0008DFE10BDF0150020054B10B51968042082
:1057F0000A002D315532FF32FF31FFF77FFE10BD19
:10580000F0150020054B10B5196803200A002D3152
:105810004D32FF32FF31FFF771FE10BDF015002051
:10582000054B10B5196802200A002D314532FF32B0
:10583000FF31FFF763FE10BDF0150020054B10B5DA
:10584000196801200A002D313D32FF32FF31FFF788
:1058500055FE10BDF0150020054B10B5196800204D
:105860000A0015312532FF32FF31FFF747FE10BD28
:10587000F015002010B5FEF74DFA10BDF7B5002465
:105880000F4D260028680300FC335C61B430FEF73E
:10589000D1FA0C4BDB080193019B9C420CD00A4FC0
:1058A00020003900FEF7EEFC320008213800FDF739
:1058B00049F801340600EFE72B68FC335E61F7BD61
:1058C000F015002000200000F415002010B5074C52
:1058D0002068FE30FEF76EFA23681A00FC330932A6
:1058E000FF3218789968FEF705FB10BDF01500200F
:1058F0000B0010B5074C010022001800FEF7FAFA61
:1059000000202368834203D1636858425841C0B2E3
:1059100010BDC046F4150020F7B50024154E3068C0
:1059200084611030FEF746FA002763020193019D5F
:1059300033683D439D61997D2800FFF7D9FF00281A
:1059400003D179460530FDF709FA80203368C0009D
:1059500028439861997DFFF7CBFF002803D1794652
:105960000530FDF7FBF90137022FE0D10134022C9D
:10597000DAD1F7BDF015002070B50024094D286874
:105980001C30FEF717FA084EF608B44208D22B680E
:1059900021000333D87F0022FEF7ACFA1034F4E77D
:1059A00070BDC046F01500200020000010B5064C68
:1059B00020683430FEF746FC21683022BC310220DA
:1059C000FEF7C0FB10BDC046F015002010B5FDF776
:1059D00021F9FDF73FF910BD10B5FEF7F3FA10BD40
:1059E00010B50E4C20680830FEF7E4F90C4B226825
:1059F0001B6811899BB299420BD10A4B51891B68D4
:105A00009BB2994205D1084B92891B689BB29A427E
:105A100003D079460420FDF7A1F910BDF015002050
:105A2000381C00403C1C0040401C004010B579462A
:105A30000520FDF793F910BDF8B5164D28683430F0
:105A4000FEF700FC2B681A00F4321468F8331E8845
:105A50002700FEF72FFC3619B74206D22968380016
:105A6000EC31FEF735FC0137F6E7FEF72DFC002799
:105A7000B44207D229682000EC31FEF761FC013402
:105A80003F18F5E7FEF7BAF9002F01D0FFF7CEFF78
:105A9000F8BDC046F0150020534BF0B51C6887B028
:105AA0002000022200212B3001F0EEF9200002221A
:105AB00000212D3001F0E8F92000022200212F30D2
:105AC00001F0E2F9200002220021313001F0DCF97E
:105AD00020002430FEF76EF9002301930133029376
:105AE000019B00255B02039301231F2704933E4E75
:105AF000039C33682C432A3319782000FFF7F8FE03
:105B0000002817D132682309640A141922002B32A5
:105B100012783B40002A05D021002D3109780490ED
:105B2000994207D0210001322B312D340A702370A5
:105B300000230493802301359B009D42D7D180230D
:105B400000260124039ADB001A430592264F05988C
:105B50003B6830432A331978FFF7CAFE3D0000281E
:105B600006D1019A3B6804009B1801222F331A705A
:105B70000236102EEAD1049B802223401C002868A4
:105B8000029B92001C40838C243013430380FEF759
:105B900011F9012700262B6803982A33197830431E
:105BA000FFF7A6FE002806D1019A2B6807009B1874
:105BB000012231331A700136102EECD128680B4BBC
:105BC000828C243013400380FEF7F4F8019B2740B9
:105BD000013302970193022B82D1029B002B01D14A
:105BE000FFF724FF07B0F0BDF0150020FFFDFFFF19
:105BF00010B5084C2068B430FEF71CF9216830223B
:105C0000BC310220FEF738FA302801D0FFF70EFF32
:105C100010BDC046F015002070470000F8B51F4DBC
:105C20002B68002B04D1EA204000FDF7A1FE28607C
:105C3000EA222C6852000021200001F025F9200002
:105C4000174E06223100103001F0E0F80B2720003B
:105C5000B11DA77506221C3001F0D8F831001922B9
:105C60002000E31CDA770C31133A243001F0CEF82F
:105C7000230020002A331F7008225521EC3001F048
:105C800003F923002000FC331F703430FEF7EAFADA
:105C900028684830FEF786FCF8BDC046F0150020A5
:105CA000AA6F002010B502219EB0142000F0E8F980
:105CB00062B6002301930123019A93400293214B82
:105CC00002991B681A680A422FD05A6807AC8A43A7
:105CD0005A60002305A805940693FDF727F8039062
:105CE000200001F017F9039BC0B21871002805D1FC
:105CF000019B154A9B009B58984705E0114B029960
:105D00001A6853680B435360039B1B79002B03D124
:105D10000398FDF719F802E00023039A1371094B69
:105D200002991A6813688B431360019B0133DBB23D
:105D300001931A2BBFD90221002000F0A1F91EB057
:105D400010BDC046F0150020BC6F002070B5174C88
:105D500006006268250053681978002925D011686B
:105D60000A78002A21D05A880231981DB24202D204
:105D7000FDF7F0FA01E0FDF7FAFA636818680230FF
:105D8000FDF702FB00280DD00123626811684B70FB
:105D9000A968DB180B43AB605368EA681B791343AF
:105DA000EB6002E063681B68587070BDFC15002052
:105DB00070B5164C0500226853681978002924D064
:105DC00011680A78002A20D05A880231981DAA4208
:105DD00002D2FDF7BFFA01E0FDF7C9FA236818689F
:105DE0000230FDF7D1FA00280CD001232268116897
:105DF0004B70A1680B43A3605368E2681B7913439F
:105E0000E36002E023681B68587070BDFC15002039
:105E1000F8B50F4C830006000C20E4180D00FDF7C8
:105E2000A7FD070020600620FDF7A2FD3860FCF703
:105E300047F90C23734322686E30C0185060236802
:105E400059681A6809781170002151709D60F8BD79
:105E5000FC150020002010B5064B0749186058605B
:105E6000D8609860FFF7D4FF04490120FFF7D0FF06
:105E700010BDC046FC150020B15D00204D5D002026
:105E800010B5034A83009B5808009B68984710BDD3
:105E9000FC150020024B8000C3581B6858787047DF
:105EA000FC1500200022034B8000C3581B681A70A9
:105EB0007047C046FC150020054B8000C35810B544
:105EC0001868012303700230FDF75AFA10BDC0466E
:105ED000FC15002070B50B4C850065192B68060079
:105EE0001868002343700230FDF74AFA2B68A16856
:105EF0005B681A790123B3409943E368A160934337
:105F0000E36070BDFC150020014BD8687047C046A7
:105F1000FC150020014B98687047C046FC15002016
:105F2000030000B5012003293ED8080000F038FF27
:105F3000020A0A2700201D4B1B68834234D030BF61
:105F4000013031E072B61A4A13600022194B1A6010
:105F5000194A012904D113688B431943116003E0E6
:105F6000022311680B43136014490B68134A002B7A
:105F7000FBD11368002BFCD062B6012014E072B68E
:105F80000B4A136000220B4B1A6004230A4A116863
:105F90000B431360094A13689BB2002BFBD101200D
:105FA000074A13688343136000BDC0460C160020E7
:105FB00008280040102800400C280040002800401D
:105FC00018280040014B18607047C0460C1600208E
:105FD000002800D020BF7047802802D00A4B98428A
:105FE00010D103290ED1C046C046C046C046C046A7
:105FF000C046C046C046C046C046C046C046C04671
:10600000C046C0467047C04680000100012303809F
:1060100070477047704770478D46004770470000D3
:1060200005497A460020914205D87B46034A8818E4
:1060300083428041404270470020002000800000E1
:10604000024B1868C005C00F7047C0461C280040AE
:10605000024A034BD31800221A60704700800000E8
:10606000FC1F002010B5054A53791268DB00D318D5
:106070005B68002B00D0984710BDC046101600206A
:1060800070B50D0000218026164A174C1160636818
:10609000B60433436360154B154ED863154BDE636E
:1060A00088421DD032235843134B0138984204D9FB
:1060B00079460120FCF752FE0CE05060C020236AB4
:1060C00000061B021B0A034323620723916013602F
:1060D000032DEDD8236AA9071B021B0A194321626D
:1060E00070BDC04610E000E000ED00E0101600209A
:1060F000D161002000000000FFFFFF00014B986B02
:106100007047C04610160020014B9B6B181A704751
:1061100010160020044BDA6B996B80189A6B521A98
:106120009042FBD87047C0461016002070B5041E80
:1061300002D0431E184203D079460120FCF70EFE20
:10614000094D2C71E4002000FDF712FC2200002113
:10615000286000F099FE054B0549186A800F013050
:10616000FCF7DAFD70BDC0461016002000ED00E01F
:1061700065600020F8B50B4F04003B790D00160058
:10618000834205D9002903D0EFF30583002B03D008
:1061900079460120FCF7E2FD3B68E4001C1960C46D
:1061A000F8BDC04610160020002110B5074A13683C
:1061B0001279D2009A18934206D01C68844201D109
:1061C000196059600833F6E710BDC046101600206C
:1061D0000F4B70B59A6BD96B1C0052189A639A7961
:1061E000002A13D05D791B68EE009E193368002BDE
:1061F00007D09847074B5B685B0102D53068FFF713
:10620000D3FF23795A1E6B1C1340637170BDC046C7
:106210001016002000ED00E00122014B9A7170473A
:10622000101600200022014B9A71704710160020B2
:1062300070B504000D00002802D08368002B03D144
:1062400079460120FCF78AFD72B60721094A136BD3
:10625000581C0140506B814206D0116362B69B000E
:10626000D3181C61656004E062B679460320FCF730
:1062700075FD70BD10160020F0B59DB0002305AC73
:1062800003A803940493FCF751FD0190200000F053
:1062900041FE019BC0B21871002844D100262D4B4D
:1062A0002C4DDB68696B2A6B914228D007278A0046
:1062B000AA180131126939406963002A1FD01900F8
:1062C0000027002908D08A4202D00F000968F8E7A9
:1062D000002F3BD01168396019000027002906D033
:1062E00054684868241A02D40F000968F6E7116060
:1062F000002F01D03A60D5E713000126D2E7002E27
:1063000001D0144AD360134AD368002B01D130BFA7
:10631000C4E7916B5868091AF9D4196893609B68AF
:10632000D1609847BAE70B4B9B68DB68002B07D11D
:10633000019B1B79002B05D10198FCF705FD9DE71A
:106340009847F5E70023019A137197E71368012630
:10635000C2E7C046101600200C490D4A10B552186D
:10636000131F1C680B4B00209C420ED14B680A4C3B
:10637000A3420AD9934208D20B6808498B4204D938
:10638000074A881883429B41584210BD00200020D4
:10639000008000005A5A5A5A0420002000000020B1
:1063A0000020000010B5FFF74BFE002817D0FFF7C4
:1063B00037FE002813D1FFF7CFFF002806D1084988
:1063C000084BC85089B20848FCF7A0FDFFF7C4FF8E
:1063D000002804D0044B19685868FFF71DFE10BD53
:1063E00000800000FC1F0020002000201023064831
:1063F000026805491A42FBD1042304480A681A427C
:1064000001D00268FAE770470CA0002008A0002025
:106410000A22044B1A60044A044B1A600022044BFF
:106420001A60704710A00020C704000000A00020E0
:1064300004A00020102310B506490A681A42FCD1B6
:10644000FFF7D4FF044BC046013B9BB2002BFAD1AF
:1064500010BDC0460CA000202F0400000221034AFA
:10646000400013688B4318431060704704A000205D
:10647000F8B504000D001027FFF7B8FF2300002037
:106480000749084E1A1B954208D9086032683A42FB
:10649000FCD1034A12681A700133F3E7F8BDC04615
:1064A00008A000200CA00020F0B503000225064C37
:1064B000064E1A1A914206D91A7827682F42FCD044
:1064C00032600133F5E7F0BD0CA0002008A00020E9
:1064D000014880470148804719660020CD370020D9
:1064E000FEE7C04670470000024B4001C01800683C
:1064F0007047C0461C2C004030B56125164B40014A
:10650000C418236889B2AB43203D2B432360134B4F
:10651000C41823681B0C1B041943114B2160C118BC
:106520000C68104B2340B224240623430B60C42183
:106530000D4B890088331A600C4B0D4A5C58224081
:106540005A5080229139D202FF395A501A60094BB1
:10655000C0180123036030BD102C0040182C0040EF
:10656000242C004000007F400000000000E100E01B
:10657000FFFF00FF142C00407047704700234029A4
:1065800012D9036043608360C36003614361836128
:10659000C361036243628362C362036343638363D1
:1065A000C36340394030EAE70023042902D908C018
:1065B0000439FAE700234118884202D00370013001
:1065C000FAE7704710B505490548FFF7D7FF054AB8
:1065D0000549064800F01AFC10BDC046C80200007C
:1065E000E01300202003000074700020C010002081
:1065F00010B5054A0549064800F008FC0123054A84
:1066000011680B43136010BDC00000000020002083
:1066100000000020D41C004030B56E4BB7B01B68A2
:106620000393039B1B0105D4FFF7BCFE039B002BC8
:106630005DDA0EE0FFF7C6FF67496848FFF79EFF87
:10664000FFF7D6FFFDF77EF9FFF7E8FAFCF732FB1C
:10665000EAE7FFF7B7FF60496048FFF78FFFFFF7F2
:10666000C7FFFCF74FFB002301215D4A08AC137004
:106670005C4A04A8116004940593FCF757FB009052
:10668000200000F047FC009BC4B21C71002C17D105
:10669000FDF758F9FBF7C4FEFCF746FE0221322055
:1066A000FFF7EEFC62B6FDF78DFC02212000FFF73C
:1066B000E7FCFCF7AFFAFCF7CDFAFDF7ADFF0DE014
:1066C000474D022180202C70FFF7DAFC2B78002B3D
:1066D00004D00222434B1A60FCF710F9009B00988B
:1066E0001B79002B5AD00023009A13716FE0039B93
:1066F0009B005FD5FFF766FFFFF77AFFFCF702FB11
:1067000000230121364A1FAC1370364A06A81160D7
:1067100006940793FCF70AFB0190200000F0FAFBB7
:10672000C4B22500019B1C716B1E9D41EDB2002C73
:106730001ED1FDF707F9FBF773FEFCF7F5FD02210B
:106740003220FFF79DFC62B6FDF73CFC02212000E1
:10675000FFF796FCFCF75EFAFCF77CFAFDF738FFD2
:10676000002802D0FDF748FF13E0FDF755FF10E0C9
:106770001B4D022180202C70FFF782FC2B78002B10
:1067800001D1002505E00222164B1A60FCF7B6F88D
:10679000F7E7019B1879002803D11800FCF7D4FA19
:1067A00015E0002D03D07946FCF7D8FA0FE0019BE5
:1067B0001D710CE0039A0C4B1A4208D00B4B1B685E
:1067C000082B04D10A4A073B11680B43136037B00A
:1067D00030BDC0460028004070010000A81600200F
:1067E0005416002050160020017F000004280040AD
:1067F000D41C0040034B1868000F43425841C0B2FC
:106800007047C046341D00408023034A1B061168B0
:106810000B4313607047C04608300040054B1A8A8E
:10682000002A05D05969013A0870013159611A826C
:106830007047C046581600200721064A13688B434C
:1068400005390B4313600123034A11680B4313609E
:106850007047C046083000400C30004070B5184CFE
:106860006068FFF751FC174B984202D9237A002B3E
:106870001ED1154B1B689B071CD5FFF73FFC134B24
:1068800060601868238AC0B2002B02D0FFF7C6FFF1
:1068900010E0A169257F0A00561AAE4203D216788D
:1068A00001327340F8E7984207D10123237304E0D3
:1068B00001236372637A002B01D00123637070BDE2
:1068C00058160020B80B0000043000400030004093
:1068D000012210B506490B68DB091342FBD1682081
:1068E000FFF718FC0723034A11680B43136010BD20
:1068F000043000400830004010B5FFF7E9FF0022E7
:10690000014B1A6010BDC0460030004010B5FFF7C3
:10691000F3FF10BD012210B5024BDA74FFF7D8FF68
:1069200010BDC04658160020074B1B685B0609D4F3
:10693000064B1A6801231340012B03D1044A126845
:10694000044A53707047C046043000400C30004089
:1069500000300040581600200123174A10B5116876
:106960001940164B012904D11548006880090842D6
:1069700002D0D97C00291DD0D97C002903D1106810
:1069800001310143116000211A8AD9740D488A42ED
:106990000DD09C7C8C4207D15969013A0C780131A9
:1069A000046059611A8205E00160997402E002688E
:1069B00001225A7010BDC0460C300040581600200D
:1069C00004300040003000400B4B10B51B68002B1A
:1069D00011DB0A4B0A4A1B681B031B0B19008B397E
:1069E000FF39914205D8074A13600122064B5A70BD
:1069F00001E0FFF709FF10BD0830004014300040EF
:106A00004EB30000103000405816002070B51A4CEC
:106A10000125238A002B2DD0184803689B092B429F
:106A20001ED117490B682B401A1EAA420BD1154BD9
:106A30001B680B68934313430B60FFF75FFB6060B9
:106A4000FFF7FAFE17E003685B082B4213D0FFF74D
:106A500055FB0C4B60601868C0B2FFF7DFFE0AE020
:106A60006068FFF751FB084B984204D9237A002B4A
:106A700001D06572657070BD58160020043000406A
:106A80000C30004000300040881300001F4B10B550
:106A90001B689B0739D5FFF731FB1D4A1D4B506022
:106AA00018681400C3B27C2B0CD002D8402B09D03C
:106AB0000DE07E2B03D07F2B09D17D3B00E003232B
:106AC000537004E0C0B2FFF7A9FE06236370124BB7
:106AD0001B68002B19DB114B114C1A682368120339
:106AE000180959094118180A0918120B581A824234
:106AF0000BD359188A4208D89A4201D2013B03E0CD
:106B00009342924152429B18236010BD04300040D2
:106B1000581600200030004008300040143000407B
:106B20001030004010B5064B9A695A611A7F1A82DC
:106B300000229A74FFF780FEFFF766FE10BDC04684
:106B4000581600200D4B10B500221977198201212B
:106B50001A705A701972986158619A741A73DA74BB
:106B60005A605A720649074B19600F21064B19608B
:106B7000064B1A60FFF748FE10BDC04658160020AD
:106B800058140000103000400C3000400830004025
:106B900070B5114C114A65782178EB00A94202D1F9
:106BA000D3185E6805E0D318257044CB002A00D0C6
:106BB0009047B047637A002B03D000230220637212
:106BC00008E00120854205D123786078181A431E19
:106BD0009841C0B270BDC046581600203C700020DD
:106BE00010B50A4B1A78012A0BD100229A7404328C
:106BF0005A70074A5861198213685B005B0813607A
:106C000003E079460420FCF7A9F810BD58160020CF
:106C10000830004010B502240A4B1A78A243012A1A
:106C20000AD19A7403325A70074A5861198213685C
:106C30005B005B08136003E079460420FCF78EF8E4
:106C400010BDC0465816002008300040054B10B556
:106C5000986900230370033343700221FFF7DAFFC2
:106C600010BDC0465816002010B50A4B1A78012AEC
:106C70000BD100229A7405325A70074A5861198262
:106C800013685B005B08136003E079460420FCF79F
:106C900065F810BD5816002008300040034B187BE3
:106CA000002801D000221A737047C04658160020F1
:106CB000014B18727047C04658160020F8B502887C
:106CC00004000E0043888A4201D39A4200D92380EF
:106CD000002B0BD027880025FBF750FEA84203D0DD
:106CE0003D007543FBF754FEE58001E0A388E38097
:106CF000A288A389D318E2889B1A22899BB2A38118
:106D00009A4202D90023A38103E06289934200D909
:106D1000A281A089F8BD0000034B10B51B68002BB1
:106D200000D0984710BDC046781600201B4B10B508
:106D30001B68002B01D098472EE0C2880B1C9142A3
:106D400000D9131C41889BB2994207D902889B1A2B
:106D5000828A9BB2534342891B0A0FE082889A427F
:106D600006D95A1AC48A93B2634382891B0A05E082
:106D70009A1A018B93B24B43C2891B0A9B18018953
:106D80009BB21A1C8B4200D20A1C438A91B2181C77
:106D90008B4200D9101C80B210BDC0467C1600206A
:106DA00002B4714649084900095C49008E4402BC9E
:106DB0007047C046F0B54F464646C0B41604360C80
:106DC0009946330005042C0C070C150C63437E43D5
:106DD0006F4365431C0CAD1964199C46A64203D948
:106DE00080235B02984647446346250CEF191D0437
:106DF0004B464A4343432D0C240464199918C9197E
:106E000020000CBC90469946F0BDC04670B50F2AD4
:106E100032D90C0004430B00A40731D11500040043
:106E2000103D2D0901352D0149191E6826605E6847
:106E300066609E68A660DE681033E6601034994292
:106E4000F3D10F2345191340032B1BD91C1F00231B
:106E5000A4080134A400CE58EE5004339C42FAD169
:106E600003232D1909191A4005D00023CC5CEC54DA
:106E700001339A42FAD170BD0500002AF5D1FAE734
:106E80000500F2E71A00F8E770B583073FD0541EFB
:106E9000002A3BD0CEB20300032503E0621E002C83
:106EA00034D0140001335A1E16702B42F6D1032C35
:106EB00024D9FF250D402A0215432A0415430F2C1F
:106EC00011D92600103E3609013636011A009B19E9
:106ED000156055609560D56010329342F8D10F224D
:106EE0001440032C0AD9261FB6080136B6001A0032
:106EF0009B1920C29342FCD103221440002C05D0E0
:106F0000C9B21C19197001339C42FBD170BD140029
:106F10000300CCE7F0C041464A4653465C466D4606
:106F200076467EC02838F0C80020704710307CC8F4
:106F300090469946A246AB46B54608C82838F0C8E0
:106F4000081C00D1012018470000211042206330A6
:106F50008440A550C660E770088129914AA16BB1B1
:106F60008CC1ADD1CEE1EFF1000000006410B71D7F
:106F7000C8206E3BAC30D9269041DC76F4516B6B67
:106F80005861B24D3C7105502083B8ED44930FF029
:106F9000E8A3D6D68CB361CBB0C2649BD4D2D386DF
:106FA00078E20AA01CF2BDBD00010800200000002C
:106FB000315032000380204030000380D959002036
:106FC000E15900201959002079590020995A0020D0
:106FD000F15B0020CD590020AD590020395A002026
:106FE000CD580020195C0020815400207D580020DD
:106FF00075580020595800203D5800202158002085
:1070000005580020E9570020CD570020B157002037
:1070100095570020795700205D57002041570020E8
:107020002557002009570020070605040302010028
:1070300008090A0B0C0D0E0F0000000000000000F4
:10704000C9690020256B00208D6A00200D69002091
:1070500029690020000000004D6C00201569002007
:1070600059690020F96800200D6A00200000000026
:047070005D68002037
:107074000000AD04000000009D01AD041007EE0502
:1070840082071007EE0500001E0000000A00000041
:10709400DC050000040608040040000000000000B5
:1070A40000000000000000000000000000000000DC
:1070B40000000000000000000000000000000000CC
:1070C4000000FA019606FF07380E340E51163E1FD3
:1070D4001A260C261F08D4034C0A0A0019000100C2
:1070E40091000400050002000100010001000100FC
:1070F4000500010001000000DD300020F130002017
:10710400053100201931002000FF01FF02FF03FFB9
:1071140085310020C5310020D9340020A53100205C
:1071240069310020000000004D3100200000000003
:10713400C9300020000000002D31002000000000B4
:1071440000FFFF0302010302FF0000005934002086
:10715400793400208D33002099340020E533002059
:10716400F93300200D340020993300200000000082
:1071740000000000D1330020D1330020AD330020C3
:10718400D1330020D13300200000000000000000B3
:1071940000000000B137002000000000000810408B
:1071A4001F30000810401030C800EE02190A000019
:1071B40065460020854600209D460020B5460020F7
:1071C400C5460020D5460020E5460020F5460020AF
:1071D4000D470020254700203D470020754600202C
:1071E40000FFFFFFFF0B0A0701FF0B0A0702FF0B5B
:1071F4000A0703FF0B0A08FFFF0B0A0706050B0A21
:107204000706040B0A0906044D470020000000008D
:1072140000000000000000000000000051480020B1
:107224005148002085470020E14C00200000000068
:10723400514800205148002085470020294D002056
:1072440000000000514800205148002085470020DC
:107254001949002000000000514800205148002036
:107264003D4D0020000000000000000015480020F3
:107274001548002059480020754D0020C9470020BA
:10728400154800201548002059480020754D00205D
:107294001149002015480020154800209548002079
:1072A400754D0020D5480020214900207149002057
:1072B400414E0020114E0020694900206149002000
:1072C40023490020254900204D47002000000000EC
:1072D40000000000000000000000000051480020F1
:1072E40051480020854700200D5000200000000078
:1072F4005148002051480020854700208550002037
:10730400000000005148002051480020854700201B
:107314001949002000000000514800205148002075
:10732400A5500020000000000000000015480020C7
:10733400154800205948002009510020C947002061
:107344001548002015480020594800200951002004
:1073540011490020154800201548002095480020B8
:1073640009510020D54800202149002071490020FE
:10737400D55100205951002069490020614900205D
:1073840023490020254900203B1000000000000094
:107394005A5A5A5A5A5A5A5A5A5A5A5A5A5A5A5A49
:1073A4005A5A5A5A5A5A5A5A5A5A5A5A5A5A5A5A39
:1073B4005A5A5A5A5A5A5A5A5A5A5A5A5A5A5A5A29
:1073C4005A5A5A5A5A5A5A5A5A5A5A5A5A5A5A5A19
:04000005200064D1A2
:00000001FF
