:020000042000DA
:0800C0009901002000A4832730
:1000C800F02080007047000073B5184C2368002B9F
:1000D80021D100F095F8060000F08AF8051E02D13B
:1000E800784600F0ADF8EC2300229B00EA546946FC
:1000F8000320256000F09CF800280CD0320021680D
:10010800032000F085F8050000F07AF8854202D057
:10011800784600F095F8EC2322689B00D35C002B0E
:1001280002D1784600F08CF873BDC0462416002032
:1001380030B5047887B0012C07D00023104C236019
:1001480000F08EF80F4B236017E00F4B0F4D039311
:1001580000F056F8049000F063F8EF239B00C358B2
:1001680006350C2203A928000193059300F070F8C6
:1001780028000C2100F034F8200007B030BDC0463C
:10018800FC1300203901002066778899801500202B
:10019800094A0A4B1A600A4A0A4B1A600A4A0B4B68
:1001A8001A6001220A4B1A7022325A70094A5A8080
:1001B800094A5A607047C046D1000020F412002056
:1001C800C9000020F012002039010020FC13002093
:1001D8007815002067450000EFCDAB8900000000CE
:1001E80001B40248844601BC604700BF6D1000009E
:1001F80001B40248844601BC604700BFE5470000DF
:1002080001B40248844601BC604700BF5D09000094
:1002180001B40248844601BC604700BFB14E0000EB
:1002280001B40248844601BC604700BF5109000080
:1002380001B40248844601BC604700BF654E000017
:1002480001B40248844601BC604700BF4D17000056
:1002580001B40248844601BC604700BF717A0000BF
:1002680001B40248844601BC604700BFBD2D0000B0
:0802780001236745EFCDAB89BE
:04000005200001993D
:00000001FF
